{
  "abi": [
    {
      "anonymous": false,
      "inputs": [
        {
          "indexed": false,
          "internalType": "address",
          "name": "_prev",
          "type": "address"
        },
        {
          "indexed": false,
          "internalType": "address",
          "name": "_next",
          "type": "address"
        }
      ],
      "name": "jarOnwerChanged",
      "type": "event"
    },
    {
      "inputs": [
        {
          "internalType": "uint256",
          "name": "_nr",
          "type": "uint256"
        }
      ],
      "name": "plusOne",
      "outputs": [
        {
          "internalType": "uint256",
          "name": "",
          "type": "uint256"
        }
      ],
      "stateMutability": "nonpayable",
      "type": "function"
    },
    {
      "inputs": [
        {
          "internalType": "address",
          "name": "_o",
          "type": "address"
        }
      ],
      "name": "setJarOwner",
      "outputs": [],
      "stateMutability": "nonpayable",
      "type": "function"
    }
  ],
  "bytecode": {
    "object": "0x608060405234801561001057600080fd5b50600180546001600160a01b031916331790556101b9806100326000396000f3fe608060405234801561001057600080fd5b50600436106100365760003560e01c806393ba9e911461003b578063f5a6259f14610050575b600080fd5b61004e610049366004610114565b610075565b005b61006361005e366004610144565b6100e5565b60405190815260200160405180910390f35b6001546001600160a01b031661008a57600080fd5b600180546001600160a01b0319166001600160a01b0383169081179091556040805133815260208101929092527f7caa4f27eee97aca0662aee6a49aade586392f149adf53298e4243ceb9133eaa910160405180910390a150565b6001546000906001600160a01b03166101095761010382600161015d565b92915050565b61010382600161015d565b60006020828403121561012657600080fd5b81356001600160a01b038116811461013d57600080fd5b9392505050565b60006020828403121561015657600080fd5b5035919050565b6000821982111561017e57634e487b7160e01b600052601160045260246000fd5b50019056fea26469706673582212208a6470b1df348f717b977197f7086f46499db40e19a212a22f7cddc21cb8c8fc64736f6c634300080f0033",
    "linkReferences": {}
  },
  "methodIdentifiers": {
    "plusOne(uint256)": "f5a6259f",
    "setJarOwner(address)": "93ba9e91"
  },
  "id": 1
}